:020000040000fa
:04025c00285c00001a
:020000040000fa
:0403c400285c0000b1
:020000040000fa
:0403c800285c0000ad
:020000040000fa
:04021000285c000066
:020000040000fa
:04027400285c000002
:020000040000fa
:04033400285c000041
:020000040000fa
:04035c00285c000019
:020000040000fa
:04027000285c000006
:020000040000fa
:04036000285c000015
:020000040000fa
:04036400285c000011
:020000040000fa
:04023800285c00003e
:020000040000fa
:04026000285c000016
:020000040000fa
:04028800285c0000ee
:020000040000fa
:0402b800285c0000be
:020000040000fa
:0402e000285c000096
:020000040000fa
:04031c00285c000059
:020000040000fa
:0403d000285c0000a5
:020000040000fa
:04022c00285c00004a
:020000040000fa
:04023c00285c00003a
:020000040000fa
:0402bc00285c0000ba
:020000040000fa
:0402c000285c0000b6
:020000040000fa
:0402c400285c0000b2
:020000040000fa
:0402c800285c0000ae
:020000040000fa
:04028000285c0000f6
:020000040000fa
:04028400285c0000f2
:020000040000fa
:04039c00285c0000d9
:020000040000fa
:04022800285c00004e
:020000040000fa
:04027800285c0000fe
:020000040000fa
:04029c00285c0000da
:020000040000fa
:0402fc00285c00007a
:020000040000fa
:04030000285c000075
:020000040000fa
:0403bc00285c0000b9
:020000040000fa
:0403c000285c0000b5
:020000040000fa
:0403d400285c0000a1
:020000040000fa
:0403d800285c00009d
:020000040000fa
:0403dc00285c000099
:020000040000fa
:0403e000285c000095
:020000040000fa
:0403e400285c000091
:020000040000fa
:0403e800285c00008d
:020000040000fa
:0403ec00285c000089
:020000040000fa
:0403f000285c000085
:020000040000fa
:0403f400285c000081
:020000040000fa
:0403f800285c00007d
:020000040000fa
:04026400285c000012
:020000040000fa
:04027c00285c0000fa
:020000040000fa
:0402b000285c0000c6
:020000040000fa
:0402b400285c0000c2
:020000040000fa
:0402e400285c000092
:020000040000fa
:0402e800285c00008e
:020000040000fa
:0402f400285c000082
:020000040000fa
:0402f800285c00007e
:020000040000fa
:04030400285c000071
:020000040000fa
:04030800285c00006d
:020000040000fa
:04030c00285c000069
:020000040000fa
:04031000285c000065
:020000040000fa
:04031400285c000061
:020000040000fa
:04031800285c00005d
:020000040000fa
:04032400285c000051
:020000040000fa
:04032800285c00004d
:020000040000fa
:04033800285c00003d
:020000040000fa
:04033c00285c000039
:020000040000fa
:04034000285c000035
:020000040000fa
:04034400285c000031
:020000040000fa
:04034c00285c000029
:020000040000fa
:04035000285c000025
:020000040000fa
:04035400285c000021
:020000040000fa
:04035800285c00001d
:020000040000fa
:04036800285c00000d
:020000040000fa
:04037800285c0000fd
:020000040000fa
:04037c00285c0000f9
:020000040000fa
:04039000285c0000e5
:020000040000fa
:04039400285c0000e1
:020000040000fa
:0403a000285c0000d5
:020000040000fa
:0403a400285c0000d1
:020000040000fa
:0403a800285c0000cd
:020000040000fa
:0403ac00285c0000c9
:020000040000fa
:0403b000285c0000c5
:020000040000fa
:0403b400285c0000c1
:020000040000fa
:0403fc00285c000079
:020000040000fa
:0403b800285c0000bd
:020000040000fa
:04034800285c00002d
:020000040000fa
:04026c00285c00000a
:020000040000fa
:0402f000285c000086
:020000040000fa
:04021800285c00005e
:020000040000fa
:04023000285c000046
:020000040000fa
:04024000285c000036
:020000040000fa
:04028c00285c0000ea
:020000040000fa
:04029000285c0000e6
:020000040000fa
:0402cc00285c0000aa
:020000040000fa
:0402d000285c0000a6
:020000040000fa
:0402d400285c0000a2
:020000040000fa
:0402d800285c00009e
:020000040000fa
:04039800285c0000dd
:020000040000fa
:04020c00285c00006a
:020000040000fa
:0402dc00285c00009a
:020000040000fa
:04032000285c000055
:020000040000fa
:04020800285c00006e
:020000040000fa
:04021c00285c00005a
:020000040000fa
:04022000285c000056
:020000040000fa
:04022400285c000052
:020000040000fa
:0403cc00285c0000a9
:020000040000fa
:04026800285c00000e
:020000040000fa
:0402ec00285c00008a
:020000040000fa
:04024c00285c00002a
:020000040000fa
:04025000285c000026
:020000040000fa
:0402a800285c0000ce
:020000040000fa
:0402ac00285c0000ca
:020000040000fa
:04021400285c000062
:020000040000fa
:04023400285c000042
:020000040000fa
:04024400285c000032
:020000040000fa
:04024800285c00002e
:020000040000fa
:04029400285c0000e2
:020000040000fa
:04029800285c0000de
:020000040000fa
:04032c00285c000049
:020000040000fa
:04025400285c000022
:020000040000fa
:04025800285c00001e
:020000040000fa
:04033000285c000045
:020000040000fa
:0402a000285c0000d6
:020000040000fa
:0402a400285c0000d2
:020000040000fa
:04036c00285c000009
:020000040000fa
:04037000285c000005
:020000040000fa
:04037400285c000001
:020000040000fa
:04038400285c0000f1
:020000040000fa
:04038800285c0000ed
:020000040000fa
:04038c00285c0000e9
:020000040000fa
:04038000285c0000f5
:020000040000fa
:080000004011040000000000a3
:020000040000fa
:102280000f7021000e7f22000e0188000000000068
:10229000000020000000e0000200320000012000e9
:1022a0002002880014000700550107000000e0002c
:1022b00003003a00009a25000100200002003700c8
:1022c0000000200001002000810f7000010032009a
:1022d00014000700000020000000e00002003200af
:1022e0000000020000000000125c0200000000007c
:1022f0000040da000000fe004440a900002d20004c
:102300000000e0000300320000202000900188005f
:102310004440a800000006008a1f78008b1f780048
:1023200000000600a1028800800478000000eb0095
:102330001f003700e284440054a0b4009905ba009d
:10234000e284440054a0b4009906ba00e284440038
:1023500054a0b4000006eb00476fde00fd07b2009a
:10236000ae018800636ce10003003a00eaff070059
:102370000000eb000e003700606ce10008003a003e
:10238000004deb000a05e800020039003420ec00a3
:102390000af0a0008b05e900f9ff3e0004003700b9
:1023a0006168e100010032000086eb000b000700cd
:1023b00019c7ba001905ba000e04e00003003a007c
:1023c0000a00e000dbff3a0000000600fe07b20052
:1023d000ae0288008a047800f5ff37000cd0a30015
:1023e000e20f4d001c00390089027800354dba001b
:1023f0000a05e800020039003420ec000af0a000d1
:102400008b05e9000f003200254dba000a05e800ef
:10241000020039003420ec000af0a0008b05e9002e
:10242000080032000c00e0000600320015cdba00b2
:102430000a05e800020039003420ec000af0a00090
:102440008b05e9008984e80054a0b4000b00e0008b
:10245000e2ff3a00000006009902ba00055d78002c
:102460008b05e900f7ff3200c82ade00055d780021
:102470008b05e900f3ff32000c00e000f1ff3200b1
:1024800019ddba00eeff3700be5504000000000061
:102490005e57040000000000e85604000000000041
:1024a000c85b040000000000663504000000000066
:1024b0009e38040000000000f057040000000000f7
:1024c0005e58040000000000cc360400000000004c
:1024d000ca42040000000000e042040000000000c6
:1024e000981a040000000000fe1c04000000000018
:1024f000fa1d040000000000581f04000000000046
:10250000a221040000000000942304000000000049
:10251000b22d0400000000002c3104000000000077
:102520003c32040000000000ea1a04000000000031
:10253000741b040000000000941b04000000000055
:10254000181c040000000000361c040000000000fd
:10255000be1c040000000000dc1c040000000000a1
:10256000501d040000000000da1d040000000000ff
:102570004c1e0400000000007e1e0400000000004d
:10258000981e040000000000ca1e040000000000a5
:10259000e41e040000000000381f040000000000da
:1025a000aa1f040000000000d81f04000000000063
:1025b000f21f0400000000002020040000000000c2
:1025c0003a20040000000000682004000000000021
:1025d0008220040000000000b02004000000000081
:1025e000ca200400000000000a21040000000000ce
:1025f00036210400000000007621040000000000e5
:10260000f421040000000000282204000000000063
:102610005c22040000000000902204000000000082
:10262000c4220400000000002c230400000000006d
:10263000e623040000000000202404000000000045
:102640003e24040000000000c2240400000000003a
:10265000e0240400000000006825040000000000e1
:1026600086250400000000000e2604000000000083
:102670002c26040000000000b42604000000000026
:10268000d2260400000000005a27040000000000c9
:102690007827040000000000022804000000000069
:1026a0002228040000000000ac2804000000000004
:1026b000cc280400000000000629040000000000ef
:1026c0002429040000000000a829040000000000e4
:1026d000c6290400000000004e2a0400000000008b
:1026e0006c2a040000000000f42a0400000000002e
:1026f000122b0400000000009a2b040000000000d0
:10270000b82b040000000000402c04000000000072
:102710005e2c040000000000e82c04000000000013
:10272000082d040000000000922d040000000000ad
:10273000042e040000000000202e04000000000011
:102740003c2e040000000000582e04000000000091
:10275000982e040000000000c02e040000000000bd
:10276000002f040000000000282f040000000000db
:10277000682f040000000000902f040000000000fb
:10278000d02f040000000000f82f0400000000001b
:102790003830040000000000603004000000000039
:1027a000a030040000000000c83004000000000059
:1027b00008310400000000007e3104000000000029
:1027c000083204000000000028320400000000006d
:1027d0008e32040000000000f83204000000000007
:1027e000e633040000000000705504000000000003
:1027f0002c45040000000000e84c0400000000002c
:1028000000000500839f68000100e00002003d0019
:1028100060001000e08018000300e00002003d00ae
:1028200060011100e0811900050007004f00e00081
:1028300002003b0060001000e0801800000006006d
:102840006022b800060220000000d0008180d20083
:102850000482d2008582d2000000a0000202520051
:1028600083825a00030031000202420083824a0040
:102870000000a1000603e900f3ff3a000000060093
:020000040000fa
:102000004011040000000000285c040000000000f3
:10201000285c040000000000285c040000000000b0
:10202000285c040000000000285c040000000000a0
:10203000285c040000000000285c04000000000090
:10204000285c040000000000285c04000000000080
:10205000285c040000000000285c04000000000070
:10206000285c040000000000285c04000000000060
:10207000285c040000000000285c04000000000050
:10208000285c040000000000725b040000000000f7
:10209000105b040000000000285c04000000000049
:1020a000285c040000000000285c04000000000020
:1020b000285c040000000000285c04000000000010
:1020c000285c040000000000285c04000000000000
:1020d000285c040000000000285c040000000000f0
:1020e000285c040000000000285c040000000000e0
:1020f000285c040000000000285c040000000000d0
:10210000285c040000000000285c040000000000bf
:10211000285c040000000000285c040000000000af
:10212000285c040000000000285c0400000000009f
:10213000285c040000000000285c0400000000008f
:10214000285c040000000000285c0400000000007f
:10215000285c040000000000285c0400000000006f
:10216000285c040000000000285c0400000000005f
:10217000285c040000000000285c0400000000004f
:10218000285c040000000000285c0400000000003f
:10219000285c040000000000285c0400000000002f
:1021a000285c040000000000285c0400000000001f
:1021b000285c040000000000285c0400000000000f
:1021c000285c040000000000285c040000000000ff
:1021d000285c040000000000285c040000000000ef
:1021e000285c040000000000285c040000000000df
:1021f000285c040000000000285c040000000000cf
:10220000285c040000000000285c040000000000be
:10221000285c040000000000285c040000000000ae
:10222000285c040000000000285c0400000000009e
:10223000285c040000000000285c0400000000008e
:10224000285c040000000000285c0400000000007e
:10225000285c040000000000285c0400000000006e
:10226000285c040000000000285c0400000000005e
:020000040000fa
:1000080004100000081000000c1000001010000080
:1000180014100000341100003411000034110000e5
:10002800181000001c100000201000002410000010
:10003800281000002c1000003010000034100000c0
:10004800381000003c100000401000004410000070
:10005800481000004c10000050100000341100003f
:1000680054100000581000005c10000060100000e0
:100078006410000034110000681000006c100000cb
:100088007010000074100000781000007c10000050
:100098008010000084100000881000008c10000000
:1000a800901000009410000034110000341100007a
:1000b800981000009c100000a0100000a410000080
:1000c800a8100000ac100000b0100000b410000030
:1000d800b8100000bc100000c0100000341100006f
:1000e80034110000c4100000c810000034110000d2
:1000f80034110000cc100000d010000034110000b2
:1001080034110000341100003411000034110000d3
:1001180034110000d4100000d81000003411000081
:1001280034110000dc100000e0100000e4100000b2
:1001380034110000341100003411000034110000a3
:10014800e8100000341100003411000034110000e0
:1001580034110000ec100000f0100000f410000052
:1001680034110000f8100000fc100000001100001d
:1001780034110000341100000411000008110000bf
:100188000c1100001011000034110000341100009f
:10019800141100001811000034110000341100007f
:1001a8003411000034110000341100003411000033
:1001b8001c1100003411000034110000201100004f
:1001c80024110000281100002c1100003411000037
:1001d8003411000034110000341100003411000003
:1001e80034110000341100003411000034110000f3
:0801f800341100003011000079
:020000040000fa
:10288000554900000050000057520000004400006d
:10289000414300003130000000440000414300008b
:1028a0003136000000410000444300003138000090
:1028b000004d00004f440000450000004449000066
:1028c000474f000055540000004200004c450000f6
:1028d000004600004c41000053480000004c00003e
:1028e00045440000310000004c4500004431000028
:1028f0003f0000004c45000044320000004c000046
:1029000045440000323f0000004c000045440000f8
:10291000330000004c450000443300003f0000003d
:1029200053570000313f0000004500004e410000b9
:102930003132000056000000454e000041310000d9
:10294000325600003f0000004441000043310000c7
:102950000044000041430000313f000000440000fb
:1029600041430000320000004441000043320000b7
:102970003f000000444900004646000000440000bb
:1029800049460000463f000000440000414300006b
:102990003000000044410000433000003f000000d0
:1029a0004441000043330000004400004143000064
:1029b000333f0000004300004831000000430000a6
:1029c000483100003f000000434800003200000092
:1029d00043480000323f000000430000483100003f
:1029e00041560000473f000000430000483200000d
:1029f00041560000473f0000004200004f540000d5
:102a0000483f0000004200004f54000048410000d1
:102a1000564700003f000000504f00005254000095
:102a200044000000504f000052540000443f00009a
:102a3000005200004430000000520000443000000a
:102a40003f000000524400003100000052440000ea
:102a5000313f0000005200004432000000520000ec
:102a6000443200003f0000005244000033000000e8
:102a700052440000333f0000005200004434000084
:102a800000520000443400003f00000052440000a7
:102a90003500000052440000353f000000520000a5
:102aa0004436000000520000443600003f000000a1
:102ab000504f00005254000045000000504f0000ed
:102ac00052540000453f0000005200004530000015
:102ad00000520000453000003f0000005245000059
:102ae0003100000052450000313f0000005200005c
:102af0004532000000520000453200003f00000057
:102b0000524500003300000052450000333f0000f2
:102b1000005200004534000000520000453400001f
:102b20003f00000052450000350000005245000003
:102b3000353f000000520000453600000052000002
:102b4000453600003f0000005345000054000000df
:102b5000434c00004541000052000000544f00006b
:102b6000474700004c450000005700005249000054
:102b700054450000005200004541000044000000a0
:102b80004f440000004f0000443f0000004d000093
:102b90004f440000453f0000005000004552000037
:102ba000494f000044000000504500005249000019
:102bb0004f4400003f0000004455000054590000fd
:102bc0000044000055540000593f00000057000029
:102bd00049440000544800000057000049440000e8
:102be000544800003f0000005431000050450000f0
:102bf000524900004f4400000054000031500000d2
:102c000045520000494f0000443f000000520000c0
:102c10004553000045540000005200004553000099
:102c2000455400003f000000464f0000525700008e
:102c30004152000044000000455200004153000092
:102c4000450000003a2c0000200000004f4e00001c
:102c5000004f000046460000005400004f470000af
:102c6000474c000045000000310d00000a00000044
:102c7000300d00000a0000000d0a0000002c0000ca
:102c80002000000025530000545200004541000080
:102c90004d5f00004f500000454e00002500000031
:102ca0002544000049530000434f00004e4e0000f1
:102cb0004543000054250000000000001201000000
:102cc00000020000020000000040000066660000f4
:102cd000c2cd000000000000010200000001000061
:102ce00009020000430000000201000000a00000f3
:102cf0003209000004000000000100000202000090
:102d00000000000005240000001000000104000085
:102d1000240200000205000024060000000100005b
:102d200005240000010100000107000005810000ea
:102d3000030a000000400000090400000100000038
:102d4000020a000000000000000700000502000069
:102d500002400000000000000705000082020000a1
:102d60004000000000000000709600000403000016
:102d7000090400001a0300004f0000006c0000006e
:102d8000690000006e000000200000004300000009
:102d90006f0000006c0000006c0000006500000087
:102da00067000000650000003603000050000000ce
:102db0004900000043000000320000003400000021
:102dc000460000004a000000310000003200000010
:102dd0003800000047000000430000003000000001
:102de000300000003600000020000000430000001a
:102df00044000000430000002000000044000000e8
:102e0000650000007600000069000000630000001b
:102e100065000000b6960000ba960000d496000047
:020000040000fa
:102e20000400fa00000f7800110798001e007800d7
:102e30000000e00004003a000080eb005a00370078
:102e40001e0fe80001003700000000001e0078009f
:102e50009040780000c2b30080cf5000f8ff3200ed
:102e60001e00780010407800e94f5000f4ff320057
:102e70001e0090008000eb0001087800450037003c
:102e80001e00780090407800f0c2b30080cf500060
:102e9000110034001e0078009040780090c3b30009
:102ea00080cf50000c003c001e0090001000780005
:102eb000c400dd001e007800104078000000fb0018
:102ec0000080400001fd2f00808040001e00900027
:102ed000010878002e0037001e007800904078002e
:102ee00000c6b30080cf5000110034001e007800ef
:102ef0009040780060c6b30080cf50000c003c00ca
:102f00001e00900010007800c400dd001e00780054
:102f1000104078000000fb000080400091fa2f0074
:102f2000808040001e0090000108780018003700e3
:102f30001e0078009040780000c4b30080cf50009d
:102f4000110034001e0078009040780060c4b30087
:102f500080cf50000c003c001e0090001000780054
:102f6000c400dd001e007800104078000000fb0067
:102f70000080400091fc2f00808040001e009000e7
:102f800001087800020037000080eb0006003700df
:102f90001e0fe8001e007800104078000004e000da
:102fa000b7ff3a000000eb000080fa0000000600c6
:102fb0000400fa00000f7800110798001e00780046
:102fc0000000e00004003a000080eb002f00370012
:102fd0001e0fe80001003700000000001e0078000e
:102fe0009040780000c2b30080cf5000f8ff32005c
:102ff0001e00780010407800e94f5000f4ff3200c6
:103000001e0090008000eb00010878001a003700d5
:103010001e00780090407800f0c2b30080cf5000ce
:10302000130034001e0078009040780090c3b30075
:1030300080cf50000e003c001e0090001000780071
:103040006a00b900800078001e0078001040780007
:103050000000fb000080400001fd2f008080400048
:103060001e009000010878001e0fe80002003700e3
:103070000080eb00050037001e007800104078004b
:103080000004e000e2ff3a000000eb000080fa00dc
:10309000000006000800fa00200798003107980099
:1030a0000000eb00000f78001a0037002e0090009f
:1030b0004c00de00100798001e009000e90f500041
:1030c00007003e001e009000004078000043b00062
:1030d000804078003e0090000148780006003700ec
:1030e0001e009000004078007043b00080407800df
:1030f0003e009000014878003e0090000000e8008b
:10310000300798002e0090004400dd002007980052
:103110001e0fe8001e007800e30f5000e3ff3600aa
:103120003e0090008040eb00014878000080fa00eb
:10313000000006000a00fa003007980041079800d6
:103140000000eb00100798000000eb00000f780073
:10315000250037003e0090004c00de00200798005c
:103160002e0090000000e00002003200100020005d
:10317000100798001e0090000000e00003003a00d5
:103180001e007800e30f500013003a002e0090005c
:10319000e90f500007003e002e009000004078002c
:1031a0000043b000804078004e0090000148780055
:1031b000060037002e009000004078007043b000f9
:1031c000804078004e009000014878004e0090004a
:1031d0000000e800400798003e0090004400dd0039
:1031e000300798001e0fe8001e007800e30f500023
:1031f000d8ff36004e0090008040eb000148780078
:103200000080fa00000006000400fa00000f7800b9
:1032100011079800040037001e0fe8001e00900000
:103220000000e800100798001e00780010407800a9
:103230000004e000060032001e0078009040780094
:103240001e0090001040780080cf5000f2ff320046
:103250001e007800904078001e009000104078001a
:1032600080cf500002003a000000eb000900370058
:103270001e007800904078001e00900010407800fa
:1032800080cf500002003d000080eb0001003700bd
:10329000100020000080fa00000006000600fa007e
:1032a000000f780011079800220798002e00900068
:1032b0000000e00007003a000000eb002b003700a0
:1032c0001e0fe8001e0090000000e80010079800a4
:1032d00001003700000000001e0078001040780058
:1032e0000004e000100032001e0090001040780042
:1032f0000004e0000c0032001e00780090407800ce
:103300001e0090001040780080cf500006003a0068
:103310002e0090000000e900200798002e00900089
:103320000000e000e6ff3a001e00780090407800c0
:103330001e0090001040780080cf500002003a003c
:103340000000eb00090037001e0078009040780074
:103350001e0090001040780080cf500002003d0019
:103360000080eb0001003700100020000080fa0010
:10337000000006000c00fa00300798004107980092
:10338000520798003e0090000000e00006003a005e
:103390005e009000100078000000e00002003a009b
:1033a0000000eb00600037003e0090000000e000ed
:1033b00003003a005e009000100078000100370022
:1033c0003e009000000f780017003700ce009000fc
:1033d00011079800090037001e007800904078001f
:1033e0001e0090001040780080cf5000080032008e
:1033f0001e0090000000e800100798001e009000da
:10340000104078000004e000f3ff3a0001003700ac
:10341000000000001e009000104078000004e00052
:10342000060032001e0fe8001e00780010407800f1
:103430000004e000e5ff3a00010037000000000052
:103440001e007800104078000004e0000300320005
:103450009e007800210798001e0037005e00900053
:103460008000eb00010878000000eb002e00370020
:10347000ce00900011079800090037001e00780068
:10348000904078001e0090001040780080cf5000df
:10349000080032001e0090000000e80010079800ad
:1034a0001e009000104078000004e000f3ff3a0096
:1034b00001003700000000001e00780090407800f6
:1034c0001e0090001040780080cf500006003200af
:1034d0001e0fe8001e007800104078000004e00095
:1034e000e3ff3a0001003700000000001e007800f2
:1034f000104078000004e000070032001e00780051
:103500008040eb00014878009e00e8005e009000db
:1035100001087800030037005e0090008000eb0097
:10352000010878002e0090000080fa0000000600dc
:103530000800fa00300798000000eb002007980010
:103540006400470000017800216229003e009000dd
:1035500088ff0700100798001e0090000000e000a0
:103560001a0032000000eb00000f78001400370052
:103570001e007800c200dd004034210000804000c1
:1035800010007800800078001e0090001eff0700e9
:103590000000e00009003a001e0078004200dd0053
:1035a0008080e800403421000080400090007800d6
:1035b0002e00900001000100040037001e0fe800fb
:1035c0001e007800e60f5000e9ff36000080fa0088
:1035d000000006000800fa00300798000000eb0029
:1035e000100798000e80e800000178002162290091
:1035f0003e0090005fff0700000f78001e0078007b
:103600000000e00036003200616229001e007800f0
:10361000fdfe07000000e00002003a00dce2a90025
:103620002f003700916229001e007800f6fe070087
:103630000000e00002003a00dce2a80028003700a9
:10364000d16229001e007800effe07000000e000b4
:1036500010003a00e11680000008200000806000a1
:1036600000f0a7000000ea000000e9004f00de00c3
:10367000004078000080fb00610060004700dd0032
:10368000e11680000170a10001007000e0168800c2
:103690001300370064004700800078001e007800a7
:1036a000dffd07000000e0000d003a002e00900052
:1036b00000f0a7000000ea000000ea004f00de0072
:1036c000004078000080fb00610060004700dd00e2
:1036d000e11680000170a10001007000e016880072
:1036e0000080fa00000006000200fa00000f7800d7
:1036f000e116800000082000008060000000e0006b
:1037000004003200114280004063290001000100e2
:10371000030037001142800080632900010001008e
:103720000080fa00000006000800fa003007980048
:103730000000eb00100798000e80e8000001780000
:10374000216229003e0090000aff0700000f780068
:103750001e0078000000e0003300320061622900a2
:103760001e007800a8fe07000000e00002003a00fa
:10377000ec02a9002c003700916229001e0078009d
:10378000a1fe07000000e00002003a00ec02a800e1
:1037900025003700d16229001e0078009afe07003c
:1037a0000000e0000e003a00601780006100600039
:1037b00000f0a7000000ea000000e9004f00de0072
:1037c000004078000080fb0061006000611780000d
:1037d0000100a1000100700060178800120037008e
:1037e00064004700800078001e0078008cfd070010
:1037f0000000e0000c003a002e00900000f0a7004e
:103800000000ea000000ea004f00de0000407800ff
:103810000080fb0061006000611780000100a100d2
:1038200001007000601788000080fa0000000600a8
:103830000200fa00000f780060178000610060004d
:103840000000e000040032001142800040632900c3
:10385000010001000300370011428000806329004d
:10386000010001000080fa00000006000800fa00d4
:10387000300798000000eb00100798000e80e80069
:1038800000017800216229003e009000b9fe070087
:10389000000f78001e0078000000e00035003200c4
:1038a000616229001e00780057fe07000000e0005a
:1038b00002003a00ec22a9002e0037009162290094
:1038c0001e00780050fe07000000e00002003a00f1
:1038d000ec22a80027003700d16229001e007800e2
:1038e00049fe07000000e0000f003a00601780006a
:1038f0006200600000f0a7000000ea000000e9009c
:103900004f00de00004078000080fb006100600096
:1039100000004000611780000110a100010070004c
:1039200060178800130037006400470080007800ab
:103930001e0078003afd07000000e0000d003a008c
:103940002e00900000f0a7000000ea000000ea004e
:103950004f00de00004078000080fb006100600046
:1039600000004000611780000110a10001007000fc
:10397000601788000080fa00000006000200fa00cc
:10398000000f780060178000620060000000e00017
:103990000400320011428000406329000100010050
:1039a00003003700114280008063290001000100fc
:1039b0000080fa00000006000200fa00000f780004
:1039c0000142800092168000000028000000610083
:1039d0000000e0000200320010c3b3000100370015
:1039e00000c3b3000100010011428000c063290040
:1039f000010001000080fa00000006000800fa0043
:103a0000300798000000eb00200798006400470092
:103a100000017800216229003e00900055fe070059
:103a2000100798001e0090000000e0001a0032000d
:103a30000000eb00000f7800140037001e00780033
:103a4000c200dd0000362100008040001000780038
:103a5000800078001e009000ebfd07000000e000f1
:103a600009003a001e0078004200dd008080e80076
:103a70000036210000804000900078002e00900069
:103a800001000100040037001e0fe8001e0078004e
:103a9000e10f5000e9ff36000080fa000000060048
:103aa0000800fa00300798000000eb0010079800ab
:103ab0000e80e80000017800216229003e0090009d
:103ac0002cfe0700000f78001e0078000000e000c8
:103ad00036003200616229001e007800cafd07002e
:103ae0000000e00002003a00d582a8002f00370055
:103af000916229001e007800c3fd07000000e0006d
:103b000002003a00d582a90028003700d1622900be
:103b10001e007800bcfd07000000e00010003a0025
:103b2000a1168000000021000080600000f0a700c6
:103b30000000ea000000e9004f00de0000407800cd
:103b40000080fb00610060004c00dd00a1168000d9
:103b500001c0a10001007000a0168800130037000a
:103b600064004700800078001e007800acfc07006d
:103b70000000e0000d003a002e00900000f0a700c9
:103b80000000ea000000ea004f00de00004078007c
:103b90000080fb00610060004c00dd00a116800089
:103ba00001c0a10001007000a01688000080fa008a
:103bb000000006000200fa00000f7800a116800045
:103bc00000002100008060000000e00004003200de
:103bd000114280004063290001000100030037000a
:103be0001142800080632900010001000080fa007a
:103bf000000006000800fa00300798000000eb0003
:103c00002007980064004700000178002162290025
:103c10003e009000d7fd0700100798001e0090009e
:103c20000000e0001a0032000000eb00000f7800f6
:103c3000140037001e007800c200dd00803621002d
:103c40000080400010007800800078001e00900086
:103c50006dfd07000000e00009003a001e0078003a
:103c60004200dd008080e8008036210000804000b6
:103c7000900078002e009000010001000400370041
:103c80001e0fe8001e007800e50f5000e9ff360027
:103c90000080fa00000006000800fa0030079800d3
:103ca0000000eb00100798000e80e800000178008b
:103cb000f16329003e009000aefd0700000f780080
:103cc0001e0078000000e0000a0032006400470097
:103cd000800078001e00780051fc07000000e00022
:103ce00004003a00ae009000f03f20000080600029
:103cf000102288000080fa00000006000800fa0088
:103d000030079800102280008e00780009fd07001f
:103d1000114280000e007800010001001142800075
:103d2000c0632900010001000080fa0000000600c5
:103d30000800fa00300798000000eb001007980018
:103d40000e80e80000017800f16329003e00900039
:103d500088fd0700000f78001e0078000000e000da
:103d60000a00320064004700800078001e007800de
:103d70002bfc07000000e00004003a00ae009000b9
:103d8000f03f200000806000302288000080fa00b0
:103d9000000006000800fa0030079800302280007a
:103da0008e007800e3fc0700114280000e007800ce
:103db0000100010011428000c063290001000100e0
:103dc0000080fa00000006000c00fa00500798007e
:103dd0000000eb0030079800660047000001780003
:103de000f16329005e00900062fd0700000f78007b
:103df0001e0078000000e0001b0032006800470051
:103e0000800078001e00780005fc07000000e0003c
:103e100015003a004e00900080007800004020001d
:103e2000008040000080d10080007800f03f20003a
:103e300000806000100798004e00900001402000b4
:103e4000008050000080d10080007800f03f20000a
:103e500000806000200798009e00900011228800da
:103e6000ae009000312288000080fa0000000600b9
:103e70000800fa00300798001022800080007800c7
:103e800030228000008050008e007800a9fc0700de
:103e9000114280000e0078000100010011428000f4
:103ea000c0632900010001000080fa000000060044
:103eb0000800fa00300798000000eb002007980087
:103ec0006400470000017800216229003e00900054
:103ed00028fd0700100798001e0090000000e00079
:103ee0001a0032000000eb00000f780014003700c9
:103ef0001e007800c200dd00003821000080400074
:103f000010007800800078001e009000befc0700c2
:103f10000000e00009003a001e0078004200dd00c9
:103f20008080e80000382100008040009000780088
:103f30002e00900001000100040037001e0fe80071
:103f40001e007800eb0f5000e9ff36000080fa00f9
:103f5000000006000800fa00300798000000eb009f
:103f6000100798000e80e80000017800f163290036
:103f70003e009000fffc0700000f78001e00780054
:103f80000000e00008003200640047008000780074
:103f90001e007800a2fb07000000e00002003a00cb
:103fa0002e009000460d07000080fa000000060079
:103fb0000800fa00300798003d0d07008e007800d9
:103fc0005cfc0700114280000e0078000100010037
:103fd00011428000c0632900010001000080fa0046
:103fe000000006000800fa00300798000000eb000f
:103ff000100798000e80e80000017800f1632900a6
:104000003e009000dbfc0700000f78001e007800e7
:104010000000e000080032006400470080007800e3
:104020001e0078007efb07000000e00002003a005e
:104030002e0090004c0d07000080fa0000000600e2
:104040000800fa0030079800430d07008e00780042
:1040500038fc0700114280000e00780001000100ca
:1040600011428000c0632900010001000080fa00b5
:10407000000006000800fa00300798000000eb007e
:10408000100798000e80e80000017800f163290015
:104090003e009000b7fc0700000f78001e0078007b
:1040a0000000e00008003200640047008000780053
:1040b0001e0078005afb07000000e00002003a00f2
:1040c0002e009000520d07000080fa00000006004c
:1040d0000800fa0030079800490d07008e007800ac
:1040e00014fc0700114280000e007800010001005e
:1040f00011428000c0632900010001000080fa0025
:10410000000006000800fa00300798000000eb00ed
:10411000100798000e80e80000017800f163290084
:104120003e00900093fc0700000f78001e0078000e
:104130000000e000080032006400470080007800c2
:104140001e00780036fb07000000e00002003a0085
:104150002e009000580d07000080fa0000000600b5
:104160000800fa00300798004f0d07008e00780015
:10417000f0fb0700114280000e00780001000100f2
:1041800011428000c0632900010001000080fa0094
:10419000000006000a00fa00400798000000eb004b
:1041a000300798006600470000017800f16329009d
:1041b0004e0090006ffc0700000f78001e00780092
:1041c0000000e000110032003e0090000000e0001e
:1041d0000e0032000e80e800800078001e0078009b
:1041e0000ffb07000000e00008003a003e009000ce
:1041f000e40047000afb07000000e00003003a006b
:10420000ae0090001e009000510d07000080fa00e3
:10421000000006000800fa0030079800ce0c0700e6
:104220008e007800c3fb0700114280000e0078006a
:104230000100010001428000c0c2b3000100010082
:104240009b0c07008e007800bafb0700114280002b
:104250000e0078000100010011428000c0632900b7
:10426000010001000080fa00000006000a00fa00c8
:10427000400798000000eb003007980066004700f8
:1042800000017800f16329004e00900039fc07001e
:10429000000f78001e0078000000e00011003200de
:1042a0003e0090000000e0000e0032000e80e800aa
:1042b000800078001e007800d9fa07000000e000b6
:1042c00008003a003e009000e4004700d4fa0700de
:1042d0000000e00003003a00ae0090001e009000d5
:1042e000640d07000080fa00000006000800fa00d4
:1042f00030079800ec0c07008e0078008dfb07005b
:10430000114280000e00780001000100014280008f
:10431000c0c2b30001000100b90c07008e00780094
:1043200084fb0700114280000e00780001000100ac
:1043300011428000c0632900010001000080fa00e2
:10434000000006000800fa00300798000000eb00ab
:1043500020079800640047000001780021622900ce
:104360003e00900003fc0700100798001e0090001c
:104370000000e0001a0032000000eb00000f78009f
:10438000140037001e007800c200dd00003b210051
:104390000080400010007800800078001e0090002f
:1043a00099fb07000000e00009003a001e007800b9
:1043b0004200dd008080e800003b210000804000da
:1043c000900078002e0090000100010004003700ea
:1043d0001e0fe8001e007800e50f5000e9ff3600d0
:1043e0000080fa00000006000c00fa005007980058
:1043f000790d0700008fbe001e007800e400470022
:104400004cfb0700114280006400470001000100de
:1044100001428000c0c2b300010001001e00be00c6
:104420004008de0000007800e400470041fb070080
:104430001142800064004700010001001142800029
:10444000c0632900010001000080fa00000006009e
:104450000c00fa0050079800e40d0700008fbe0022
:104460001e007800e400470032fb07001142800084
:10447000640047000100010001428000c0c2b30097
:10448000010001001e00be004008de0000007800b0
:10449000e400470027fb070011428000640047004a
:1044a0000100010011428000c063290001000100e9
:1044b0000080fa00000006000c00fa005007980087
:1044c000560f0700008fbe001e007800e400470072
:1044d00018fb070011428000640047000100010042
:1044e00001428000c0c2b300010001001e00be00f6
:1044f0004008de0000007800e40047000dfb0700e4
:104500001142800064004700010001001142800058
:10451000c0632900010001000080fa0000000600cd
:104520000c00fa00500798005c0f0700008fbe00d7
:104530001e007800e4004700fefa070011428000e8
:10454000640047000100010001428000c0c2b300c6
:10455000010001001e00be004008de0000007800df
:10456000e4004700f3fa07001142800064004700ae
:104570000100010011428000c06329000100010018
:104580000080fa00000006001000fa007007980092
:1045900064004700800078000e007800180e0700c5
:1045a0001e00be0000007800e8004700e1fa0700a6
:1045b00011428000680047000100010001428000b4
:1045c000c0c2b300010001001e00be004008de00b2
:1045d00000007800e8004700d6fa0700114280008a
:1045e000680047000100010001428000c0c2b30022
:1045f000010001002e009000be0090000000780035
:10460000e8004700cbfa070011428000680047002d
:104610000100010001428000c0c2b300010001009e
:104620002e009000be0090004008de0000007800e0
:10463000e8004700bffa0700114280006800470009
:104640000100010011428000c06329000100010047
:104650000080fa00000006001000fa0070079800c1
:1046600064004700800078000e0078002b0f0700e0
:104670001e00be0000007800e8004700adfa070009
:1046800011428000680047000100010001428000e3
:10469000c0c2b300010001001e00be004008de00e1
:1046a00000007800e8004700a2fa070011428000ed
:1046b000680047000100010001428000c0c2b30051
:1046c000010001002e009000be0090000000780064
:1046d000e800470097fa0700114280006800470091
:1046e0000100010001428000c0c2b30001000100ce
:1046f0002e009000be0090004008de000000780010
:10470000e80047008bfa070011428000680047006c
:104710000100010011428000c06329000100010076
:104720000080fa00000006000800fa003007980038
:104730000000eb00200798006400470000017800ab
:10474000216229003e0090000afb07001007980034
:104750001e0090000000e0001a0032000000eb0094
:10476000000f7800140037001e007800c200dd0042
:10477000803c21000080400010007800800078001c
:104780001e009000a0fa07000000e00009003a00b7
:104790001e0078004200dd008080e800803c21009f
:1047a00000804000900078002e0090000100010081
:1047b000040037001e0fe8001e007800ff0f5000b5
:1047c000e9ff36000080fa00000006000800fa0049
:1047d000300798000000eb00100798000e80e800fa
:1047e00000017800f16329003e009000e1fa070023
:1047f000000f78001e0078000000e0000e0032007c
:1048000064004700800078001e00780084f90700eb
:104810000000e00008003a00e116800000f82f00d8
:10482000808060002e019000f007200000006100f1
:1048300001007000e01688000080fa000000060009
:104840000800fa0030079800d1168000f007200019
:10485000008060008e00780036fa07001142800068
:104860000e0078000100010011428000c0632900a1
:10487000010001000080fa00000006000800fa00b4
:10488000300798000000eb00100798000e80e80049
:1048900000017800216229003e009000b5fa07006f
:1048a000000f78001e0078000000e00033003200a6
:1048b000616229001e00780053fa07000000e00042
:1048c00002003a00dc02a8002c00370091622900a7
:1048d0001e0078004cfa07000000e00002003a00d9
:1048e000dc02a90025003700d16229001e007800f3
:1048f00045fa07000000e0000e003a00e0168000d4
:104900006100600000f0a7000000ea000000e9007c
:104910004f00de00004078000080fb006100600076
:10492000e11680000100a10001007000e01688007f
:104930001200370064004700800078001e007800f5
:1049400037f907000000e0000c003a002e0090004c
:1049500000f0a7000000ea000000ea004f00de00bf
:10496000004078000080fb0061006000e1168000dc
:104970000100a10001007000e01688000080fa002c
:10498000000006000200fa00000f7800e016800028
:10499000610060000000e00004003200114280006d
:1049a000406329000100010003003700114280002c
:1049b00080632900010001000080fa000000060069
:1049c0000800fa00300798000000eb00100798007c
:1049d0000e80e80000017800216229003e0090006e
:1049e00064fa0700000f78001e0078000000e00065
:1049f00035003200616229001e00780002fa0700cb
:104a00000000e00002003a00dc22a8002e0037007f
:104a1000916229001e007800fbf907000000e00009
:104a200002003a00dc22a90027003700d1622900e9
:104a30001e007800f4f907000000e0000f003a00c3
:104a4000e01680006200600000f0a7000000ea00ad
:104a50000000e9004f00de00004078000080fb000d
:104a60006100600000004000e11680000110a1001c
:104a700001007000e0168800130037006400470052
:104a8000800078001e007800e5f807000000e000d4
:104a90000d003a002e00900000f0a7000000ea0090
:104aa0000000ea004f00de00004078000080fb00bc
:104ab0006100600000004000e11680000110a100cc
:104ac00001007000e01688000080fa000000060077
:104ad0000200fa00000f7800e0168000620060001b
:104ae0000000e00004003200114280004063290011
:104af000010001000300370011428000806329009b
:104b0000010001000080fa00000006000800fa0021
:104b1000300798000000eb00100798000e80e800b6
:104b200000017800216229003e00900011fa070080
:104b3000000f78001e0078000000e0003500320011
:104b4000616229001e007800aff907000000e00054
:104b500002003a00dc42a8002e00370091622900d2
:104b60001e007800a8f907000000e00002003a00eb
:104b7000dc42a90027003700d16229001e0078001e
:104b8000a1f907000000e0000f003a00e0168000e5
:104b90006400600000f0a7000000ea000000e900e7
:104ba0004f00de00004078000080fb0061006000e4
:104bb0004200dd00e11680000120a100010070002c
:104bc000e01688001300370064004700800078007a
:104bd0001e00780092f807000000e0000d003a0087
:104be0002e00900000f0a7000000ea000000ea009c
:104bf0004f00de00004078000080fb006100600094
:104c00004200dd00e11680000120a10001007000db
:104c1000e01688000080fa00000006000200fa009a
:104c2000000f7800e0168000640060000000e000e3
:104c3000040032001142800040632900010001009d
:104c40000300370011428000806329000100010049
:104c50000080fa00000006000800fa003007980003
:104c60000000eb00100798000e80e80000017800bb
:104c7000216229003e009000bef90700000f780075
:104c80001e0078000000e00035003200616229005b
:104c90001e0078005cf907000000e00002003a0006
:104ca000dc62a8002e003700916229001e00780007
:104cb00055f907000000e00002003a00dc62a9009c
:104cc00027003700d16229001e0078004ef9070046
:104cd0000000e0000f003a00e0168000680060006d
:104ce00000f0a7000000ea000000e9004f00de002d
:104cf000004078000080fb00610060004300dd00a0
:104d0000e11680000130a10001007000e01688006b
:104d10001300370064004700800078001e00780010
:104d20003ff807000000e0000d003a002e00900060
:104d300000f0a7000000ea000000ea004f00de00db
:104d4000004078000080fb00610060004300dd004f
:104d5000e11680000130a10001007000e01688001b
:104d60000080fa00000006000200fa00000f780040
:104d7000e0168000680060000000e00004003200df
:104d80001142800040632900010001000300370048
:104d90001142800080632900010001000080fa00b8
:104da000000006000800fa00300798000000eb0041
:104db000100798000e80e8000001780021622900a9
:104dc0003e0090006bf90700000f78001e0078008d
:104dd0000000e00035003200616229001e0078000a
:104de00009f907000000e00002003a00dc82a80098
:104df0002e003700916229001e00780002f907009a
:104e00000000e00002003a00dc82a9002700370021
:104e1000d16229001e007800fbf807000000e000c6
:104e20000f003a00e01680007000600000f0a7005c
:104e30000000ea000000e9004f00de0000407800ba
:104e40000080fb00610060004400dd00e11680008e
:104e50000140a10001007000e01688001300370037
:104e600064004700800078001e007800ecf707001f
:104e70000000e0000d003a002e00900000f0a700b6
:104e80000000ea000000ea004f00de000040780069
:104e90000080fb00610060004400dd00e11680003e
:104ea0000140a10001007000e01688000080fa00b7
:104eb000000006000200fa00000f7800e0168000f3
:104ec000700060000000e000040032001142800029
:104ed00040632900010001000300370011428000f7
:104ee00080632900010001000080fa000000060034
:104ef0000800fa00300798000000eb001007980047
:104f00000e80e80000017800216229003e00900038
:104f100018f90700000f78001e0078000000e0007c
:104f200036003200616229001e007800b6f80700e2
:104f30000000e00002003a00dca2a8002f003700c9
:104f4000916229001e007800aff807000000e00021
:104f500002003a00dca2a90028003700d162290033
:104f60001e007800a8f807000000e00010003a00da
:104f7000e1168000000220000080600000f0a70021
:104f80000000ea000000e9004f00de000040780069
:104f90000080fb00610060004500dd00e11680003c
:104fa0000150a10001007000e016880013003700d6
:104fb00064004700800078001e00780098f7070022
:104fc0000000e0000d003a002e00900000f0a70065
:104fd0000000ea000000ea004f00de000040780018
:104fe0000080fb00610060004500dd00e1168000ec
:104ff0000150a10001007000e01688000080fa0056
:10500000000006000200fa00000f7800e1168000a0
:1050100000022000008060000000e0000400320078
:1050200011428000406329000100010003003700a5
:105030001142800080632900010001000080fa0015
:10504000000006000800fa00300798000000eb009e
:10505000100798000e80e800000178002162290006
:105060003e009000c3f80700000f78001e00780093
:105070000000e00036003200616229001e00780066
:1050800061f807000000e00002003a00dcc2a8005e
:105090002f003700916229001e0078005af807009f
:1050a0000000e00002003a00dcc2a900280037003e
:1050b000d16229001e00780053f807000000e000cc
:1050c00010003a00e116800000042000008060001b
:1050d00000f0a7000000ea000000e9004f00de0039
:1050e000004078000080fb00610060004600dd00a9
:1050f000e11680000160a10001007000e016880048
:105100001300370064004700800078001e0078001c
:1051100043f707000000e0000d003a002e00900069
:1051200000f0a7000000ea000000ea004f00de00e7
:10513000004078000080fb00610060004600dd0058
:10514000e11680000160a10001007000e0168800f7
:105150000080fa00000006000200fa00000f78004c
:10516000e116800000042000008060000000e000e4
:105170000400320011428000406329000100010058
:105180000300370011428000806329000100010004
:105190000080fa00000006000800fa0030079800be
:1051a0000000eb00100798000e80e8000001780076
:1051b000f16329003e0090006ef80700000f7800b0
:1051c0001e0078000000e0000e003200640047007e
:1051d000800078001e00780011f707000000e00052
:1051e00008003a002117800000f82f00808060003e
:1051f0002e019000f0072000000061000100700007
:10520000201788000080fa00000006000800fa005d
:105210003007980021178000f00720000080600010
:105220008e007800c3f70700114280000e0078005e
:105230000100010011428000c0632900010001004b
:105240000080fa00000006000800fa00300798000d
:105250000000eb00100798000e80e80000017800c5
:10526000216229003e00900042f80700000f7800fc
:105270001e0078000000e000330032006162290067
:105280001e007800e0f707000000e00002003a008e
:10529000e402a8002c003700916229001e0078006b
:1052a000d9f707000000e00002003a00e402a9007c
:1052b00025003700d16229001e007800d2f70700d0
:1052c0000000e0000e003a0020178000610060003e
:1052d00000f0a7000000ea000000e9004f00de0037
:1052e000004078000080fb00610060002117800012
:1052f0000100a10001007000201788001200370093
:1053000064004700800078001e007800c4f60700a3
:105310000000e0000c003a002e00900000f0a70012
:105320000000ea000000ea004f00de0000407800c4
:105330000080fb0061006000211780000100a100d7
:1053400001007000201788000080fa0000000600ad
:105350000200fa00000f7800201780006100600052
:105360000000e00004003200114280004063290088
:105370000100010003003700114280008063290012
:10538000010001000080fa00000006000800fa0099
:10539000300798000000eb00100798000e80e8002e
:1053a00000017800216229003e009000f1f707001b
:1053b000000f78001e0078000000e0003500320089
:1053c000616229001e0078008ff707000000e000ee
:1053d00002003a00e422a8002e0037009162290062
:1053e0001e00780088f707000000e00002003a0085
:1053f000e422a90027003700d16229001e007800ae
:1054000081f707000000e0000f003a00201780003d
:105410006200600000f0a7000000ea000000e90060
:105420004f00de00004078000080fb00610060005b
:1054300000004000211780000110a1000100700051
:1054400020178800130037006400470080007800b0
:105450001e00780072f607000000e0000d003a0020
:105460002e00900000f0a7000000ea000000ea0013
:105470004f00de00004078000080fb00610060000b
:1054800000004000211780000110a1000100700001
:10549000201788000080fa00000006000200fa00d1
:1054a000000f780020178000620060000000e0001c
:1054b0000400320011428000406329000100010015
:1054c00003003700114280008063290001000100c1
:1054d0000080fa00000006000800fa00300798007b
:1054e0000000eb00100798000e80e8000001780033
:1054f000216229003e0090009ef70700000f78000f
:105500001e0078000000e0003500320061622900d2
:105510001e0078003cf707000000e00002003a009f
:10552000e442a8002e003700916229001e00780096
:1055300035f707000000e00002003a00e442a9004d
:1055400027003700d16229001e0078002ef70700df
:105550000000e0000f003a002017800064006000a7
:1055600000f0a7000000ea000000e9004f00de00a4
:10557000004078000080fb00610060004200dd0018
:10558000211780000120a100010070002017880071
:105590001300370064004700800078001e00780088
:1055a0001ff607000000e0000d003a002e009000fa
:1055b00000f0a7000000ea000000ea004f00de0053
:1055c000004078000080fb00610060004200dd00c8
:1055d000211780000120a100010070002017880021
:1055e0000080fa00000006000200fa00000f7800b8
:1055f00020178000640060000000e000040032001a
:1056000011428000406329000100010003003700bf
:105610001142800080632900010001000080fa002f
:10562000000006000800fa00300798000000eb00b8
:10563000100798000e80e800000178002162290020
:105640003e0090004bf70700000f78001e00780026
:105650000000e00035003200616229001e00780081
:10566000e9f607000000e00002003a00e462a8004a
:105670002e003700916229001e007800e2f6070034
:105680000000e00002003a00e462a90027003700b1
:10569000d16229001e007800dbf607000000e00060
:1056a0000f003a00201780006800600000f0a7009b
:1056b0000000ea000000e9004f00de000040780032
:1056c0000080fb00610060004300dd0021178000c6
:1056d0000130a1000100700020178800130037007e
:1056e00064004700800078001e007800ccf50700b9
:1056f0000000e0000d003a002e00900000f0a7002e
:105700000000ea000000ea004f00de0000407800e0
:105710000080fb00610060004300dd002117800075
:105720000130a10001007000201788000080fa00fd
:10573000000006000200fa00000f78002017800029
:10574000680060000000e0000400320011428000a8
:10575000406329000100010003003700114280006e
:1057600080632900010001000080fa0000000600ab
:105770000800fa00300798000000eb0010079800be
:105780000e80e80000017800216229003e009000b0
:10579000f8f60700000f78001e0078000000e00017
:1057a00035003200616229001e00780096f607007d
:1057b0000000e00002003a00e482a8002e0037005a
:1057c000916229001e0078008ff607000000e000bb
:1057d00002003a00e482a90027003700d1622900c4
:1057e0001e00780088f607000000e0000f003a0075
:1057f000201780007000600000f0a7000000ea00a1
:105800000000e9004f00de00004078000080fb004f
:10581000610060004400dd00211780000140a1000c
:105820000100700020178800130037006400470053
:10583000800078001e00780079f507000000e00085
:105840000d003a002e00900000f0a7000000ea00d2
:105850000000ea004f00de00004078000080fb00fe
:10586000610060004400dd00211780000140a100bc
:1058700001007000201788000080fa000000060078
:105880000200fa00000f780020178000700060000e
:105890000000e00004003200114280004063290053
:1058a00001000100030037001142800080632900dd
:1058b000010001000080fa00000006000800fa0064
:1058c000300798000000eb00100798000e80e800f9
:1058d00000017800216229003e009000a5f6070033
:1058e000000f78001e0078000000e0003600320053
:1058f000616229001e00780043f607000000e00006
:1059000002003a00e4a2a8002f00370091622900ab
:105910001e0078003cf607000000e00002003a009c
:10592000e4a2a90028003700d16229001e007800f7
:1059300035f607000000e00010003a002117800053
:10594000000220000080600000f0a7000000ea00d4
:105950000000e9004f00de00004078000080fb00fe
:10596000610060004500dd00211780000150a100aa
:105970000100700020178800130037006400470002
:10598000800078001e00780025f507000000e00088
:105990000d003a002e00900000f0a7000000ea0081
:1059a0000000ea004f00de00004078000080fb00ad
:1059b000610060004500dd00211780000150a1005a
:1059c00001007000201788000080fa000000060027
:1059d0000200fa00000f780021178000000220006a
:1059e000008060000000e0000400320011428000ee
:1059f00040632900010001000300370011428000cc
:105a000080632900010001000080fa000000060008
:105a10000800fa00300798000000eb00100798001b
:105a20000e80e80000017800216229003e0090000d
:105a300050f60700000f78001e0078000000e0001c
:105a400036003200616229001e007800eef5070082
:105a50000000e00002003a00e4c2a8002f00370076
:105a6000916229001e007800e7f507000000e000c1
:105a700002003a00e4c2a90028003700d1622900e0
:105a80001e007800e0f507000000e00010003a007a
:105a900021178000000420000080600000f0a700b3
:105aa0000000ea000000e9004f00de00004078003e
:105ab0000080fb00610060004600dd0021178000cf
:105ac0000160a1000100700020178800130037005a
:105ad00064004700800078001e007800d0f40700c2
:105ae0000000e0000d003a002e00900000f0a7003a
:105af0000000ea000000ea004f00de0000407800ed
:105b00000080fb00610060004600dd00211780007e
:105b10000160a10001007000201788000080fa00d9
:105b2000000006000200fa00000f78002117800034
:105b300000042000008060000000e000040032004b
:105b4000114280004063290001000100030037007a
:105b50001142800080632900010001000080fa00ea
:105b6000000006000800fa00300798000000eb0073
:105b70002007980064004700000178002162290096
:105b80003e009000fbf50700100798001e009000f3
:105b90000000e0001a0032000000eb00000f780067
:105ba000140037001e007800c200dd008044210090
:105bb0000080400010007800800078001e009000f7
:105bc00091f507000000e00009003a001e0078008f
:105bd0004200dd008080e800804421000080400019
:105be000900078002e0090000100010004003700b2
:105bf0001e0fe8001e007800f00f5000e9ff36008d
:105c00000080fa00000006000400fa001007980067
:105c10001e0090000000e000070032008e007800b7
:105c20001e0090007ef407000000e00002003a0031
:105c30001e007800e00f07000080fa000000060058
:105c40000400fa00100798001e0090000000e00019
:105c5000070032008e0078001e00900070f40700ec
:105c60000000e00002003a001e007800e90f070083
:105c70000080fa00000006000400fa0010079800f7
:105c80001e0090000000e000070032008e00780047
:105c90001e00900062f407000000e00002003a00dd
:105ca0001e007800f20f07000080fa0000000600d6
:105cb0000a00fa00400798000000eb003007980047
:105cc0006600470000017800f16329004e00900053
:105cd000a8f50700000f78001e0078000000e00023
:105ce000110032003e0090000000e0000e00320083
:105cf0000e80e800800078001e00780048f407005d
:105d00000000e00008003a003e009000e400470078
:105d100043f407000000e00003003a00ae009000ea
:105d20001e009000201007000080fa00000006000e
:105d30000a00fa00400798004e0090000000e000c2
:105d40000d0032008e0078004e00900034f4070001
:105d50000000e00008003a001e0078005a1007001a
:105d60008e80e800f3f407000e80e800d3140700eb
:105d7000c0632900d11407000080fa00000006006b
:105d80000a00fa00400798000000eb003007980076
:105d90006600470000017800f16329004e00900082
:105da00074f50700000f78001e0078000000e00086
:105db000110032003e0090000000e0000e003200b2
:105dc0000e80e800800078001e00780014f40700c0
:105dd0000000e00008003a003e009000e4004700a8
:105de0000ff407000000e00003003a00ae0090004e
:105df0001e009000591007000080fa000000060005
:105e00000a00fa00400798004e0090000000e000f1
:105e10000d0032008e0078004e00900000f4070064
:105e20000000e00008003a001e0078009310070010
:105e30008e80e800bff407000e80e8009f14070082
:105e4000c06329009d1407000080fa0000000600ce
:105e50000a00fa00400798000000eb0030079800a5
:105e60006600470000017800f16329004e009000b1
:105e700040f50700000f78001e0078000000e000e9
:105e8000110032003e0090000000e0000e003200e1
:105e90000e80e800800078001e007800e0f3070024
:105ea0000000e00008003a003e009000e4004700d7
:105eb000dbf307000000e00003003a00ae009000b2
:105ec0001e009000701107000080fa00000006001c
:105ed0000a00fa00400798004e0090000000e00021
:105ee0000d0032008e0078004e009000ccf30700c9
:105ef0000000e00008003a001e007800ea120700e7
:105f00008e80e8008bf407000e80e8006b14070019
:105f1000c0632900691407000080fa000000060031
:105f20000a00fa00400798000000eb0030079800d4
:105f30006600470000017800f16329004e009000e0
:105f40000cf50700000f78001e0078000000e0004c
:105f5000110032003e0090000000e0000e00320010
:105f60000e80e800800078001e007800acf3070087
:105f70000000e00008003a003e009000e400470006
:105f8000a7f307000000e00003003a00ae00900015
:105f90001e0090009f1007000080fa00000006001d
:105fa0000a00fa00400798004e0090000000e00050
:105fb0000d0032008e0078004e00900098f307002c
:105fc0000000e00008003a001e007800cf10070033
:105fd0008e80e80057f407000e80e80037140700b1
:105fe000c0632900351407000080fa000000060095
:105ff0000a00fa00400798000000eb003007980004
:106000006600470000017800f16329004e0090000f
:10601000d8f40700000f78001e0078000000e000b0
:10602000110032003e0090000000e0000e0032003f
:106030000e80e800800078001e00780078f30700ea
:106040000000e00008003a003e009000e400470035
:1060500073f307000000e00003003a00ae00900078
:106060001e0090002a1007000080fa0000000600c1
:106070000a00fa00400798004e0090000000e0007f
:106080000d0032008e0078004e00900064f307008f
:106090000000e00008003a001e0078003e100700f3
:1060a0008e80e80023f407000e80e8000314070048
:1060b000c0632900011407000080fa0000000600f8
:1060c0000a00fa00400798000000eb003007980033
:1060d0006600470000017800f16329004e0090003f
:1060e000a4f40700000f78001e0078000000e00014
:1060f000110032003e0090000000e0000e0032006f
:106100000e80e800800078001e00780044f307004d
:106110000000e00008003a003e009000e400470064
:106120003ff307000000e00003003a00ae009000db
:106130001e009000851007000080fa000000060095
:106140000a00fa00400798004e0090000000e000ae
:106150000d0032008e0078004e00900030f30700f2
:106160000000e00008003a001e00780093100700cd
:106170008e80e800eff307000e80e800cf130700e1
:10618000c0632900cd1307000080fa00000006005c
:106190000a00fa00400798000000eb003007980062
:1061a0006600470000017800f16329004e0090006e
:1061b00070f40700000f78001e0078000000e00077
:1061c000110032003e0090000000e0000e0032009e
:1061d0000e80e800800078001e00780010f30700b1
:1061e0000000e00008003a003e009000e400470094
:1061f0000bf307000000e00003003a00ae0090003f
:106200001e0090007d1007000080fa0000000600cc
:106210000800fa0030079800100880008e0078000f
:10622000c4f307000e007800a4130700c0c2b30037
:106230006b130700200880008e007800bdf3070074
:106240000e0078009d130700c06329009b13070010
:106250000080fa00000006000800fa0030079800ed
:106260000000eb0020079800640047000001780060
:10627000216229003e0090003ef4070010079800bc
:106280001e0090000000e0001a0032000000eb0049
:10629000000f7800140037001e007800c200dd00f7
:1062a000c048210000804000100078008000780085
:1062b0001e009000d4f307000000e00009003a003f
:1062c0001e0078004200dd008080e800c048210008
:1062d00000804000900078002e0090000100010036
:1062e000040037001e0fe8001e007800e20f500087
:1062f000e9ff36000080fa00000006000800fa00fe
:10630000300798000000eb00100798000e80e800ae
:1063100000017800216229003e00900015f407007a
:10632000000f78001e0078000000e0003600320008
:10633000616229001e007800b3f307000000e0004e
:1063400002003a00e4e2a8002f0037009162290021
:106350001e007800acf307000000e00002003a00e5
:10636000e4e2a90028003700d16229001e0078006d
:10637000a5f307000000e00010003a00211780009c
:10638000000820000080600000f0a7000000ea0084
:106390000000e9004f00de00004078000080fb00b4
:1063a000610060004700dd00211780000170a1003e
:1063b00001007000201788001300370064004700b8
:1063c000800078001e00780095f207000000e000d1
:1063d0000d003a002e00900000f0a7000000ea0037
:1063e0000000ea004f00de00004078000080fb0063
:1063f000610060004700dd00211780000170a100ee
:1064000001007000201788000080fa0000000600dc
:106410000200fa00000f7800211780000008200019
:10642000008060000000e0000400320011428000a3
:106430004063290001000100030037001142800081
:1064400080632900010001000080fa0000000600be
:106450000200fa00000f7800d1418000605623004e
:10646000808f500002003a00e0892300d04188006c
:106470000080fa00000006000800fa0030079800cb
:106480000000eb002007980064004700000178003e
:10649000216229003e009000b6f307001007980023
:1064a0001e0090000000e0001a0032000000eb0027
:1064b000000f7800140037001e007800c200dd00d5
:1064c00080492100008040001000780080007800a2
:1064d0001e0090004cf307000000e00009003a00a5
:1064e0001e0078004200dd008080e8008049210025
:1064f00000804000900078002e0090000100010014
:10650000040037001e0fe8001e007800e20f500064
:10651000e9ff36000080fa00000006000a00fa00d9
:10652000400798000000eb00300798006600470025
:1065300000017800f16329004e0090008df3070000
:10654000000f78001e0078000000e00026003200f6
:106550003e0090000000e000230032000e80e800c2
:10656000800078001e0078002df207000000e00097
:106570001d003a003e009000e400470028f20700aa
:106580000000e00018003a0020042400003b8800ce
:106590005400f8001e009000a00288002e00900019
:1065a0008000eb000108bb001000fc00500520003b
:1065b000303b8800a00a2000303b880061e7a8003b
:1065c000000000000000000000000000013b80000f
:1065d00000002800008060000000e000fbff3a009f
:1065e00061c7a9005400f9000080fa00000006000d
:1065f0001400fa00100f98000000eb00400798000c
:106600006800470000017800f16329001e0890002f
:1066100058f30700000f78000e80e8008000780033
:106620001e007800fef107000000e00060003a0064
:106630006800470000017800f16329000000eb00ca
:106640004cf30700000f78006400470080007800da
:106650001e007800f2f107000000e00056003a004a
:106660006800470000017800f16329000000eb009a
:1066700040f30700000f78006600470080007800b4
:106680001e007800e6f107000000e0004c003a0030
:106690005400f8001e009000a00288000000eb00eb
:1066a000100798003c0037002e0090001000ba0040
:1066b000000f98000e5090000080fb00ea00470099
:1066c0009cf20700114280006a00470001000100af
:1066d00001428000c0c2b300010001001e509000c2
:1066e0000080fb00ea00470092f2070011428000a0
:1066f0006a0047000100010001428000c0c2b300ef
:10670000010001002e0090001080ba00000f9800d8
:106710000e5090000080fb00ea00470085f2070061
:10672000114280006a004700010001000142800020
:10673000c0c2b300010001001e5090000080fb00a9
:10674000ea0047007bf20700114280006a00470020
:10675000010001001e009000640040001007980036
:106760009e0090003e009000808f50000400310099
:1067700001428000c0c2b3000100010003003700e5
:1067800011428000c0632900010001002e0090002a
:106790000080e800200798009e0090003e009000d6
:1067a000808f5000c0ff39005400f9000500370009
:1067b0000000000003003700000000000100370067
:1067c000000000000080fa00000006000e00fa0041
:1067d000600798000000eb00400798006800470041
:1067e00000017800f16329006e009000e1f20700db
:1067f0001007980064004700800078001e00900099
:1068000087f107000000e00098003a0068004700a8
:1068100000017800f16329000000eb00d5f20700c9
:106820001007980066004700800078001e00900066
:106830007bf107000000e0008e003a001000240009
:10684000003b88005400f8002e009000a002880051
:10685000be00900080ff2f0000806000200798009d
:106860000000eb00000f78000a0037002e009000b7
:106870001e0040008080eb000108bb002e0090004d
:106880001e0040000000e800f10f20000188bb005e
:106890001e8fe800f00720009e007800808f5000d7
:1068a000f2ff36006800470000017800f16329001c
:1068b0000000eb00aff20700100798001e009000e8
:1068c0000000e000510032006400470080007800c2
:1068d0001e00900052f107000000e00003003a00a3
:1068e0002e009000004078000100370000c0eb004f
:1068f000204f98006800470000017800f1632900ec
:106900000000eb009bf20700100798001e009000ab
:106910000000e0003f003200640047008000780083
:106920001e0090003ef107000000e00003003a0066
:106930002e009000004078000100370000c0eb00fe
:10694000304f9800de0090003e0090000108bb0030
:106950006800470000017800f16329000000eb00a7
:1069600084f20700100798001e0090000000e0006d
:106970002a00320064004700800078001e0090006a
:1069800027f107000000e00003003a002e0090000d
:10699000004078000100370000c0eb00204f980055
:1069a0006800470000017800f16329000000eb0057
:1069b00070f20700100798001e0090000000e00031
:1069c0001800320064004700800078001e0090002c
:1069d00013f107000000e00003003a002e009000d1
:1069e00000407800010037000040eb00304f980075
:1069f000de0090003e0090000188bb003e00900049
:106a00000080e80030079800a6ff37000000000073
:106a10000500370000000000030037000000000000
:106a200001003700000000001000fc0050052000ad
:106a3000303b8800a00a2000303b880061e7a800b6
:106a4000000000000000000000000000013b80008a
:106a500000002800008060000000e000fbff3a001a
:106a600061c7a9005400f9000300370000000000ce
:106a700001003700000000000080fa00000006005e
:106a80000000fa00404a210020428800000820004f
:106a90004042880040522100304288000008200017
:106aa0005042880060562300d04188003c28ef0007
:106ab0003e28ef00007f250000428800e085250089
:106ac000104288000080fa00000006000800fa006a
:106ad000d1418000e0418000808f500006003200ec
:106ae000d0418000e04188004052210030428800bf
:106af0000008200050428800f04180000000e000c3
:106b000002003200f0418000000001009d060700f5
:106b10000000e00048003200a5060700204798006a
:106b200050428000e10f50000d003a004052210019
:106b30003042880000082000504288003042800027
:106b4000ae409000014878000000e8003042880024
:106b5000504280000000e9005042880036003700b3
:106b6000ae40900050c2b30080cf50002a003a00df
:106b7000405221009040780050c2b30080cf5000b6
:106b800018003a0051428000f0072000808f50002a
:106b900014003e0030428000ae4090000148780072
:106ba0000000e80030428800304280008040eb0066
:106bb00001487800216429004052210092f1070029
:106bc0000000e00002003a00c06c2300d0418800c1
:106bd00040522100304288000008200050428800c6
:106be0001500370040522100304288000008200084
:106bf0005042880030428000ae409000014878004a
:106c00000000e80030428800504280000000e900a7
:106c1000504288000800370030428000ae409000ab
:106c2000014878000000e8003042880050428000af
:106c30000000e90050428800df1007000000e0007b
:106c40004e003200021107002047980040428000a9
:106c5000e10f50000d003a00404a21002042880018
:106c6000000820004042880020428000ae40900092
:106c7000014878000000e80020428800404280007f
:106c80000000e900404288003c0037002e409000a0
:106c9000ed4f500031003a00204280008040eb0070
:106ca00001487800007f250000428800e08525002b
:106cb000104288000000eb00300798006600470093
:106cc0000001780021622900404a2100a9f1070053
:106cd000200798002e0090000000e0001a0032000b
:106ce0000000eb00000f7800140037001e00780051
:106cf000c200dd000032210000804000100078005a
:106d0000800078002e0090003ff107000000e000b6
:106d100009003a001e0078004200dd008080e80093
:106d20000032210000804000900078003e0090007a
:106d300001000100040037001e0fe8001e0078006b
:106d4000e80f5000e9ff3600404a21002042880049
:106d500000082000404288000800370020428000e0
:106d6000ae409000014878000000e8002042880012
:106d7000404280000000e90040428800d14180008c
:106d8000e0418000808f5000010032003e28ef007b
:106d90000080fa00000006000800fa00d1418000df
:106da000e0418000808f500007003200d041800019
:106db000e0418800dce2a900405221003042880016
:106dc0000008200050428800f04180000000e000f0
:106dd00002003200f041800000000100e9050700d8
:106de0000000e0007c003200f10507002047980019
:106df00050428000e10f50000d003a004052210047
:106e00003042880000082000504288003042800054
:106e1000ae409000014878000000e8003042880051
:106e2000504280000000e900504288006a003700ac
:106e3000ae40900050c2b30080cf50002a003a000c
:106e4000405221009040780050c2b30080cf5000e3
:106e500018003a0051428000f0072000808f500057
:106e600014003e0030428000ae409000014878009f
:106e70000000e80030428800304280008040eb0093
:106e8000014878000165290040522100def007002a
:106e90000000e00002003a0060562300d041880064
:106ea00040522100304288000008200050428800f3
:106eb000490037004052210030428800000820007d
:106ec0005042880030428000ae4090000148780077
:106ed0000000e80030428800504280000000e900d5
:106ee000504288003c0037002e409000ed4f50008b
:106ef00031003a00304280008040eb0001487800c9
:106f0000a02c240000428800002e2400104288009b
:106f10000000eb0030079800660047000001780091
:106f2000216229004052210012f107002007980039
:106f30002e0090000000e0001a0032000000eb007c
:106f4000000f7800140037001e007800c200dd003a
:106f5000003221000080400010007800800078009e
:106f60002e009000a8f007000000e00009003a00a1
:106f70001e0078004200dd008080e8000032210021
:106f800000804000900078003e0090000100010069
:106f9000040037001e0fe8001e007800e80f5000c4
:106fa000e9ff3600405221003042880000082000ee
:106fb000504288000800370030428000ae40900008
:106fc000014878000000e80030428800504280000c
:106fd0000000e90050428800f70f07000000e000c1
:106fe0004e0032001a1007002047980040428000ef
:106ff000e10f50000d003a00404a21002042880075
:10700000000820004042880020428000ae409000ee
:10701000014878000000e8002042880040428000db
:107020000000e900404288003c0037002e409000fc
:10703000ed4f500031003a00204280008040eb00cc
:1070400001487800007f250000428800e085250087
:10705000104288000000eb003007980066004700ef
:107060000001780021622900404a2100c1f0070098
:10707000200798002e0090000000e0001a00320067
:107080000000eb00000f7800140037001e007800ad
:10709000c200dd00003221000080400010007800b6
:1070a000800078002e00900057f007000000e000fc
:1070b00009003a001e0078004200dd008080e800f0
:1070c0000032210000804000900078003e009000d7
:1070d00001000100040037001e0fe8001e007800c8
:1070e000e80f5000e9ff3600404a210020428800a6
:1070f000000820004042880008003700204280003d
:10710000ae409000014878000000e800204288006e
:10711000404280000000e90040428800d1418000e8
:10712000e0418000808f5000020032003e28ef00d6
:10713000dce2a8000080fa00000006000400fa006b
:10714000d1418000e0418000808f50000400320077
:10715000d0418000e04188004c28ef00ec02a900fb
:10716000f04180000000e00002003200f0418000a9
:1071700000000100900f07000000e000280032002e
:10718000b30f070020479800ae40900000c6b30040
:1071900080cf500009003a00604280000000e80003
:1071a0006042880060428000e30f50001c003a00fb
:1071b00060562300d041880019003700ae4090008f
:1071c00000c6b30080cf5000120032006042800041
:1071d0000000e0000f0032000000eb00000f78001c
:1071e0000300370000c6b300190507001e0fe800b2
:1071f000604280009e007800808f5000f9ff3900c7
:107200002e40900012050700080507004c28ef00eb
:10721000030037002e4090000d050700030507000e
:10722000fe0407000000e00002003200280507000d
:107230006b0f0700d1418000e0418000808f50003b
:10724000020032003e28ef00ec02a8000080fa00a5
:10725000000006000000fa0000102000303a88000c
